:100000000C9458000C9480000C9480000C94800098
:100010000C9480000C9480000C9480000C94800060
:100020000C9480000C9480000C9480000C94800050
:100030000C9480000C9480000C9480000C94800040
:100040000C94D7020C9480000C9480000C948000D7
:100050000C9480000C9480000C9480000C94800020
:100060000C9421030C94800000000000250028005F
:100070002B00040404040404040402020202020229
:10008000030303030303010204081020408001025C
:1000900004081020010204081020000000080002DB
:1000A00001000003040700000000000000004004FD
:1000B00011241FBECFEFD8E0DEBFCDBF11E0A0E01E
:1000C000B1E0E8E0FBE002C005900D92A434B10776
:1000D000D9F722E0A4E4B1E001C01D92A931B20732
:1000E000E1F710E0C8E5D0E004C02197FE010E94CE
:1000F0007C05C735D107C9F70E9460040C948205BE
:100100000C94000090E0FC01E656FF4F2491FC01A6
:10011000EA57FF4F3491FC01EE58FF4FE491EE2374
:10012000B1F0222339F02330E9F090F4213001F1CD
:10013000223011F1F0E0EE0FFF1FE859FF4FA591BB
:10014000B4918FB7F894EC913E2B3C938FBF0895F8
:100150002730A9F02830C9F0243061F78091800061
:100160008F7D03C0809180008F7780938000E2CFE5
:1001700084B58F7784BDDECF84B58F7DFBCF809132
:10018000B0008F778093B000D5CF8091B0008F7D85
:10019000F9CF08950895AF92BF92CF92DF92EF9278
:1001A000FF920F931F93CF93DF936C017B018B0121
:1001B000040F151FEB015E01AE18BF08C017D10771
:1001C00059F06991D601ED91FC910190F081E02DFB
:1001D000C6010995892B79F7C501DF91CF911F9150
:1001E0000F91FF90EF90DF90CF90BF90AF90089568
:1001F0003FB7F8948091F2019091F301A091F4013E
:10020000B091F50126B5A89B05C02F3F19F00196C6
:10021000A11DB11D3FBFBA2FA92F982F8827BC0160
:10022000CD01620F711D811D911D42E0660F771F88
:10023000881F991F4A95D1F708958F929F92AF9288
:10024000BF92CF92DF92EF92FF924B015C010E942E
:10025000F8006B017C010E94F8006C197D098E0981
:100260009F09683E734081059105A8F321E0821A39
:100270009108A108B10888EEC80E83E0D81EE11CE1
:10028000F11C81149104A104B10429F7FF90EF90AF
:10029000DF90CF90BF90AF909F908F90089508957A
:1002A00085ED8093BC008091BC0084FDFCCF109252
:1002B000FC01089520918401260F3327331F21323A
:1002C0003105ECF42091FC01FC0190E080E0243049
:1002D00069F082E00895A09184012191AC014C590C
:1002E0005E4FA40FB52FB11D2C930196861798F37E
:1002F00080918401680F6093840180E0089581E01B
:1003000008950895E09100028091FF01E81730F40C
:10031000F0E0EC5BFE4F808190E008958FEF9FEF5F
:100320000895909100028091FF012FEF3FEF981701
:1003300048F4E92FF0E0EC5BFE4F208130E09F5F56
:1003400090930002C90108958091FF0190910002ED
:10035000891B990B0895CF92DF92EF92FF920F9332
:100360001F93CF93DF937C01CB018A012091CB01B6
:10037000222389F0EB016B01C40ED51ECC15DD05DF
:1003800069F06991D701ED91FC910190F081E02D28
:10039000C7010995F3CF642F0E945A01C801DF916C
:1003A000CF911F910F91FF90EF90DF90CF90089524
:1003B000CF93DF931F92CDB7DEB769832091CB0136
:1003C0002223F9F02091FD01203258F021E030E0A5
:1003D000FC013383228390E080E00F90DF91CF9186
:1003E00008958091FE01E82FF0E0E453FE4F9981DB
:1003F00090838F5F8093FE018093FD0181E090E008
:10040000ECCF61E0CE0101960E945A01F7CFCF9365
:10041000FC01C48121E02093CB01C093EC01109238
:10042000FE011092FD018385682B81E092E00E941D
:10043000D8019091FD01913208F03FC08091FC01FC
:100440008111FCCF82E08093FC0181E08093FB016D
:100450008FEF8093CA011092C9019093C801ACEC50
:10046000B1E0E8EAF1E080E098132FC01092A70114
:100470008091A701CC0FC82BC093A7018091FA01EE
:10048000813039F51092FA018091A7018093BB0069
:100490008091BC0083FDF8CF85EC8093BC008091F7
:1004A000FC018230E1F38091CA018F3F31F08091ED
:1004B000CA01803211F08091CA011092FE0110929F
:1004C000FD011092CB01CF9108952D9121938F5F63
:1004D000CBCF85EEE2CF90E080E008950F931F939D
:1004E000CF938C01C62F0E9407026C2F6460C80155
:1004F0000E9407026C2F6B7FC8010E94070283ECE9
:1005000090E00197F1F7CF911F910F9108950F930C
:100510001F93CF93DF938C01D62FC42F607F642B62
:100520000E946E0280E1D89FB00111246C2BC8019B
:10053000DF91CF911F910F910C946E02CF93DF93B7
:10054000CDB7DEB728970FB6F894DEBF0FBECDBF8C
:1005500098E0E0E0F1E0DE01119601900D929A95AD
:10056000E1F790911502961708F46FEF262F30E00F
:10057000220F331F41E050E04C0F5D1F240F351F49
:10058000F9016081680F606840E08DE092E0289694
:100590000FB6F894DEBF0FBECDBFDF91CF910C94A4
:1005A000870241E00E94870281E090E008951F9257
:1005B0000F920FB60F9211242F933F938F939F9317
:1005C000AF93BF938091EE019091EF01A091F00164
:1005D000B091F1013091ED0123E0230F2D3758F553
:1005E0000196A11DB11D2093ED018093EE01909322
:1005F000EF01A093F001B093F1018091F20190918D
:10060000F301A091F401B091F5010196A11DB11D76
:100610008093F2019093F301A093F401B093F5015C
:10062000BF91AF919F918F913F912F910F900FBEEE
:100630000F901F90189526E8230F0296A11DB11D5B
:10064000D2CF1F920F920FB60F9211242F933F9388
:100650004F935F936F937F938F939F93AF93BF93CA
:10066000EF93FF938091B900887F803609F44AC0E8
:10067000F0F5883209F4A7C018F5803109F49BC061
:10068000B8F4882309F4F9C0883009F494C0FF91C4
:10069000EF91BF91AF919F918F917F916F915F91FA
:1006A0004F913F912F910F900FBE0F901F90189573
:1006B000883109F488C0803251F78093CA0114C090
:1006C000803409F49DC040F48033B9F38833F9F6DF
:1006D0008093CA0185ECB0C0803509F485C08835A7
:1006E00009F496C0883499F60E945001D0CF883919
:1006F00009F48CC038F5883729F050F4883611F0A9
:10070000803729F683E08093FC011092A60157C040
:10071000883809F47BC0803919F0803809F0B7CFE8
:100720008091A601803208F071C0E091A60181E0BD
:100730008E0F8093A6018091BB00F0E0EA57FE4F38
:1007400080833DC0803B39F0E0F4803A09F479C001
:10075000883A09F09CCF84E08093FC0110928501D7
:1007600010928401E091F801F091F90109958091CE
:10077000840181110FC081E0809384011092640193
:1007800009C0803C09F4A6CF883C09F4A3CF883B7C
:1007900009F07DCFE091850181E08E0F8093850186
:1007A000F0E0EC59FE4F80818093BB009091850171
:1007B0008091840129C08091A7018093BB0085ECC2
:1007C0008093BC0064CF9091C9018091C8019817B3
:1007D00058F5E091C90181E08E0F8093C901F0E0E6
:1007E000E855FE4F8081E9CFE091C90181E08E0F8D
:1007F0008093C9018091BB00F0E0E855FE4F8083F3
:100800009091C9018091C8019817C8F285E8D8CFA6
:10081000E091C90181E08E0F8093C9018091BB00F6
:10082000F0E0E855FE4F80838091FB0181115CCFA1
:1008300081E08093FA0184EA8093BC001092FC016D
:1008400026CF85EC8093BC001092FC018091A6011C
:10085000803230F4E091A601F0E0EA57FE4F1082BA
:100860006091A60170E0E091F601F091F70186E851
:1008700091E009951092A6010ACF1092CA0134CFD7
:10088000E1E0F2E01382128288EE93E0A0E0B0E0B3
:1008900084839583A683B7838CE091E091838083E2
:1008A000EDE0F2E0138212828EE191E09183808389
:1008B0008FE3848380E1818782E0828713860895B5
:1008C000789484B5826084BD84B5816084BD85B52B
:1008D000826085BD85B5816085BD80916E00816037
:1008E00080936E00109281008091810082608093DD
:1008F00081008091810081608093810080918000DF
:100900008160809380008091B10084608093B10009
:100910008091B00081608093B00080917A00846003
:1009200080937A0080917A00826080937A0080912F
:100930007A00816080937A0080917A008068809349
:100940007A001092C100109200021092FF011092E2
:10095000FE011092FD011092FC0181E08093FB01E9
:100960001092FA0182E10E94820083E10E948200DB
:100970008091B9008E7F8093B9008091B9008D7FFE
:100980008093B90088E48093B80085E48093BC002C
:1009900089EC90E09093F9018093F8018AEC90E063
:1009A0009093F7018093F601109212028091170242
:1009B000823018F098E0909312028093150262E35F
:1009C00070E080E090E00E941D01609118028DE0CF
:1009D00092E00E94070268EE73E080E090E00E94DF
:1009E0001D0160E38DE092E00E946E02CBE4D6E44C
:1009F000CE010197F1F760E38DE092E00E946E0274
:100A00002197F1F760E38DE092E00E946E0283E5AA
:100A100092E00197F1F760E28DE092E00E946E02B1
:100A200060911202606240E08DE092E00E948702D5
:100A300084E08093130240E06CE08DE092E00E943D
:100A4000870240E061E08DE092E00E948702CBE304
:100A5000DFE1CE010197F1F782E08093140240E0DC
:100A600066E08DE092E00E94870240E062E08DE067
:100A700092E00E9487022197F1F788E080931802A4
:100A800060E08DE092E00E940702CBE3DFE100E04E
:100A900010E060E082E00E949E024FE050E066E2DB
:100AA00071E08DE092E00E94CB0061E080E00E9466
:100AB0009E024CE050E066E371E08DE092E00E941F
:100AC000CB0068EE73E080E090E00E941D0140E002
:100AD00061E08DE092E00E948702CE010197F1F77C
:100AE00064EF71E080E090E00E941D0101151105A6
:100AF00081F20E940000CDCFEE0FFF1F0590F49110
:080B0000E02D0994F894FFCFE9
:100B0800000040001400540000000000D801AB01B0
:100B18006B028101A4019101820100000000D10251
:100B2800CB006B024F014C6967687420496E74658D
:100B38006E73697479002E2E2E2E2E2E2E2E2E2EAA
:040B48002E2E00004D
:00000001FF
