:100000000C945D000C9485000C9485000C94850084
:100010000C9485000C9485000C9485000C9485004C
:100020000C9485000C9485000C9485000C9485003C
:100030000C9485000C9485000C9485000C9485002C
:100040000C94FD010C9485000C946D020C944702F5
:100050000C9485000C9485000C9485000C9485000C
:100060000C9485000C94850000000008000201003B
:100070000003040700000000000000000000000072
:10008000250028002B0000000000240027002A0083
:10009000040404040404040402020202020203032E
:1000A0000303030301020408102040800102040836
:1000B0001020010204081020640311241FBECFEF9A
:1000C000D8E0DEBFCDBF11E0A0E0B1E0E2E3F7E0B1
:1000D00002C005900D92A636B107D9F722E0A6E638
:1000E000B1E001C01D92AC30B207E1F710E0CDE500
:1000F000D0E004C02197FE010E949103CC35D107C6
:10010000C9F70E949F020C9497030C940000AF92D1
:10011000BF92CF92DF92EF92FF920F931F93CF93F4
:10012000DF936C017B018B01040F151FEB015E0156
:10013000AE18BF08C017D10759F06991D601ED91EB
:10014000FC910190F081E02DC6010995892B79F78A
:10015000C501DF91CF911F910F91FF90EF90DF903C
:10016000CF90BF90AF900895FC01538D448D252F03
:1001700030E0842F90E0821B930B541710F0CF9641
:10018000089501970895FC01918D828D981761F073
:10019000A28DAE0FBF2FB11D5D968C91928D9F5F8A
:1001A0009F73928F90E008958FEF9FEF0895FC0169
:1001B000918D828D981731F0828DE80FF11D858D1C
:1001C00090E008958FEF9FEF0895FC01918D228DAF
:1001D000892F90E0805C9F4F821B91098F73992734
:1001E00008958FE691E00E94E50021E0892B09F453
:1001F00020E0822F089580E090E0892B29F00E9472
:10020000F10081110C9400000895FC01A48DA80F49
:10021000B92FB11DA35ABF4F2C91848D90E0019648
:100220008F739927848FA689B7892C93A089B18968
:100230008C91837080648C93938D848D981306C009
:100240000288F389E02D80818F7D80830895EF926D
:10025000FF920F931F93CF93DF93EC0181E0888F80
:100260009B8D8C8D98131AC0E889F989808185FF50
:1002700015C09FB7F894EE89FF896083E889F989F2
:1002800080818370806480839FBF81E090E0DF91F4
:10029000CF911F910F91FF90EF900895F62E0B8D47
:1002A00010E00F5F1F4F0F731127E02E8C8D8E1102
:1002B0000CC00FB607FCFACFE889F989808185FF69
:1002C000F5CFCE010E940501F1CFEB8DEC0FFD2F94
:1002D000F11DE35AFF4FF0829FB7F8940B8FEA8924
:1002E000FB8980818062CFCFCF93DF93EC01888D33
:1002F0008823B9F0AA89BB89E889F9898C9185FDA1
:1003000003C0808186FD0DC00FB607FCF7CF8C912E
:1003100085FFF2CF808185FFEDCFCE010E940501E0
:10032000E9CFDF91CF91089590E0FC01E859FF4FAC
:100330002491FC01EC55FF4F3491FC01E057FF4F35
:10034000E491EE23C9F0222339F0233001F1A8F41F
:10035000213019F1223029F1F0E0EE0FFF1FE458AF
:10036000FF4FA591B4918FB7F894EC91611126C01D
:1003700030953E233C938FBF08952730A9F0283055
:10038000C9F0243049F7809180008F7D03C08091AF
:1003900080008F7780938000DFCF84B58F7784BD16
:1003A000DBCF84B58F7DFBCF8091B0008F778093BA
:1003B000B000D2CF8091B0008F7DF9CF3E2BDACF45
:1003C000CF93DF93FC0101900020E9F73197AF0153
:1003D000481B590BBC018FE691E00E948700EC019D
:1003E00042E050E062E171E08FE691E00E94870018
:1003F0008C0F9D1FDF91CF9108951F920F920FB622
:100400000F9211242F933F938F939F93AF93BF939A
:1004100080916B0190916C01A0916D01B0916E0182
:1004200030916A0123E0230F2D3758F50196A11D65
:10043000B11D20936A0180936B0190936C01A0938E
:100440006D01B0936E018091660190916701A0915A
:100450006801B09169010196A11DB11D80936601EB
:1004600090936701A0936801B0936901BF91AF9128
:100470009F918F913F912F910F900FBE0F901F90E2
:10048000189526E8230F0296A11DB11DD2CF1F9209
:100490000F920FB60F9211242F933F934F935F93B8
:1004A0006F937F938F939F93AF93BF93EF93FF933C
:1004B0008FE691E00E940501FF91EF91BF91AF910E
:1004C0009F918F917F916F915F914F913F912F916C
:1004D0000F900FBE0F901F9018951F920F920FB69E
:1004E0000F9211242F938F939F93EF93FF93E0919B
:1004F0007F01F09180018081E0918501F09186017A
:1005000082FD1BC09081809188018F5F8F73209145
:100510008901821741F0E0918801F0E0E159FE4F36
:10052000958F80938801FF91EF919F918F912F91EB
:100530000F900FBE0F901F9018958081F4CF789484
:1005400084B5826084BD84B5816084BD85B58260D8
:1005500085BD85B5816085BD80916E008160809389
:100560006E001092810080918100826080938100F2
:100570008091810081608093810080918000816002
:10058000809380008091B10084608093B10080915D
:10059000B00081608093B00080917A008460809385
:1005A0007A0080917A00826080937A0080917A004C
:1005B000816080937A0080917A00806880937A00CD
:1005C0001092C100E0917F01F091800182E0808370
:1005D000E0917B01F0917C011082E0917D01F0912E
:1005E0007E018FEC808310928701E0918301F0916E
:1005F000840186E08083E0918101F0918201808115
:1006000080618083E0918101F09182018081886026
:100610008083E0918101F0918201808180688083F4
:10062000E0918101F091820180818F7D808385E15D
:1006300091E00E94E001E1EBF0E02491EDE9F0E0CF
:100640008491882399F090E0880F991FFC01EA5764
:10065000FF4FA591B491FC01E458FF4F859194910F
:100660008FB7F894EC91E22BEC938FBFC0E0D0E011
:100670008FE691E00E94E5001816190674F48FE6E3
:1006800091E00E94C300803389F460E08DE00E9415
:1006900094018CE391E00E94E001209749F30E94CD
:1006A000F100882329F30E940000E2CF813339F45E
:1006B00061E08DE00E94940184E491E0ECCF82330C
:1006C00061F78BE491E0E7CFEFE6F1E0138212826D
:1006D00088EE93E0A0E0B0E084839583A683B7839F
:1006E00084E091E09183808385EC90E09587848716
:1006F00084EC90E09787868780EC90E0918B808BEC
:1007000081EC90E0938B828B82EC90E0958B848BD4
:1007100086EC90E0978B868B118E128E138E148E42
:100720000895EE0FFF1F0590F491E02D0994F894C1
:02073000FFCFF9
:100732000000000027018700B4007401E500C30037
:10074200D7000D0A002041726475696E6F20414C1A
:100752004C20706C6561736520456E746572204E25
:10076200756D62657220302C312C32004C4544206C
:100772004F4646004C4544204F4E0048656C6C6F16
:1007820020416C6C205765206C6F76652041726445
:0607920075696E6F200086
:00000001FF
