:100000000C945D000C9485000C9485000C94850084
:100010000C9485000C9485000C9485000C9485004C
:100020000C9485000C9485000C9485000C9485003C
:100030000C9485000C9485000C9485000C9485002C
:100040000C94BB030C9485000C9489030C946303FB
:100050000C9485000C9485000C9485000C9485000C
:100060000C9405040C9485000000000800020100B7
:100070000003040700000000000000000000000072
:10008000250028002B0000000000240027002A0083
:10009000040404040404040402020202020203032E
:1000A0000303030301020408102040800102040836
:1000B0001020010204081020240511241FBECFEFD8
:1000C000D8E0DEBFCDBF11E0A0E0B1E0E2EDF0E1AD
:1000D00002C005900D92A833B107D9F722E0A8E33A
:1000E000B1E001C01D92A43AB207E1F710E0CDE5FE
:1000F000D0E004C02197FE010E946108CC35D107F1
:10010000C9F70E9468050C9467080C9400000895D4
:100110000895AF92BF92CF92DF92EF92FF920F932A
:100120001F93CF93DF936C017B018B01040F151F8D
:10013000EB015E01AE18BF08C017D10759F06991F5
:10014000D601ED91FC910190F081E02DC601099559
:10015000892B79F7C501DF91CF911F910F91FF9006
:10016000EF90DF90CF90BF90AF900895FC01538D3A
:10017000448D252F30E0842F90E0821B930B541781
:1001800010F0CF96089501970895FC01918D828D0E
:10019000981761F0A28DAE0FBF2FB11D5D968C91A7
:1001A000928D9F5F9F73928F90E008958FEF9FEFE6
:1001B0000895FC01918D828D981731F0828DE80FA2
:1001C000F11D858D90E008958FEF9FEF0895FC015C
:1001D000918D228D892F90E0805C9F4F821B910929
:1001E0008F739927089585EF91E00E94E70021E041
:1001F000892B09F420E0822F089580E090E0892B7C
:1002000029F00E94F30081110C9400000895FC0174
:10021000A48DA80FB92FB11DA35ABF4F2C91848D67
:1002200090E001968F739927848FA689B7892C93C4
:10023000A089B1898C91837080648C93938D848D17
:10024000981306C00288F389E02D80818F7D80831A
:100250000895EF92FF920F931F93CF93DF93EC01DA
:1002600081E0888F9B8D8C8D98131AC0E889F9895D
:10027000808185FF15C09FB7F894EE89FF89608360
:10028000E889F98980818370806480839FBF81E0E1
:1002900090E0DF91CF911F910F91FF90EF90089523
:1002A000F62E0B8D10E00F5F1F4F0F731127E02EFE
:1002B0008C8D8E110CC00FB607FCFACFE889F98936
:1002C000808185FFF5CFCE010E940701F1CFEB8D34
:1002D000EC0FFD2FF11DE35AFF4FF0829FB7F8940A
:1002E0000B8FEA89FB8980818062CFCFCF93DF9328
:1002F000EC01888D8823B9F0AA89BB89E889F9893E
:100300008C9185FD03C0808186FD0DC00FB607FC72
:10031000F7CF8C9185FFF2CF808185FFEDCFCE01A5
:100320000E940701E9CFDF91CF91089590E0FC0191
:10033000E859FF4F2491FC01EC55FF4F3491FC012B
:10034000E057FF4FE491EE23C9F0222339F0233028
:1003500001F1A8F4213019F1223029F1F0E0EE0F7B
:10036000FF1FE458FF4FA591B4918FB7F894EC911B
:10037000611126C030953E233C938FBF08952730EE
:10038000A9F02830C9F0243049F7809180008F7D92
:1003900003C0809180008F7780938000DFCF84B589
:1003A0008F7784BDDBCF84B58F7DFBCF8091B0008C
:1003B0008F778093B000D2CF8091B0008F7DF9CF3E
:1003C0003E2BDACF3FB7F894809180019091810164
:1003D000A0918201B091830126B5A89B05C02F3F53
:1003E00019F00196A11DB11D3FBFBA2FA92F982F5B
:1003F0008827BC01CD01620F711D811D911D42E056
:10040000660F771F881F991F4A95D1F708958F921D
:100410009F92AF92BF92CF92DF92EF92FF924B01E9
:100420005C010E94E2016B017C010E94E2016C19F7
:100430007D098E099F09683E734081059105A8F3E7
:1004400021E0821A9108A108B10888EEC80E83E065
:10045000D81EE11CF11C81149104A104B10429F7F8
:10046000FF90EF90DF90CF90BF90AF909F908F90D4
:10047000089585ED8093BC008091BC0084FDFCCF85
:100480001092D001089520915801260F3327331F71
:1004900021323105ECF42091D001FC0190E080E0A4
:1004A000243069F082E00895A09158012191AC01B7
:1004B000485C5E4FA40FB52FB11D2C930196861793
:1004C00098F380915801680F6093580180E0089577
:1004D00081E008950895E091890180918801E817ED
:1004E00030F4F0E0E657FE4F808190E008958FEF02
:1004F0009FEF089590918901809188012FEF3FEF40
:10050000981748F4E92FF0E0E657FE4F208130E0DD
:100510009F5F90938901C90108958091880190910E
:100520008901891B990B0895CF92DF92EF92FF9278
:100530000F931F93CF93DF937C01CB018A0120910E
:10054000F401222389F0EB016B01C40ED51ECC15FA
:10055000DD0569F06991D701ED91FC910190F08181
:10056000E02DC7010995F3CF642F0E944302C80113
:10057000DF91CF911F910F91FF90EF90DF90CF907F
:100580000895CF93DF931F92CDB7DEB76983209193
:10059000F4012223F9F02091F101203258F021E0FA
:1005A00030E0FC013383228390E080E00F90DF9104
:1005B000CF9108958091F201E82FF0E0EF52FE4FC5
:1005C000998190838F5F8093F2018093F10181E0A4
:1005D00090E0ECCF61E0CE0101960E944302F7CF9C
:1005E000CF93C0919F0291E09093F401C093F301E7
:1005F0001092F2011092F101682F82E992E00E94BC
:10060000C1029091F101913208F03FC08091D00178
:100610008111FCCF82E08093D00181E08093CF01F3
:100620008FEF8093CE011092CD019093CC01E1ED3C
:10063000F1E0ACEAB1E080E098132FC01092AB017A
:100640008091AB01CC0FC82BC093AB018091AA0164
:10065000813039F51092AA018091AB018093BB00E3
:100660008091BC0083FDF8CF85EC8093BC00809125
:10067000D0018230E1F38091CE018F3F31F0809143
:10068000CE01803211F08091CE011092F2011092D1
:10069000F1011092F401CF91089521912D938F5F74
:1006A000CBCF85EEE2CF90E080E00895FC01019091
:1006B0000020E9F73197AF01481B590BBC0185EFCA
:1006C00091E00C9489001F920F920FB60F921124A3
:1006D0002F933F934F935F936F937F938F939F934A
:1006E000AF93BF93EF93FF9385EF91E00E940701D3
:1006F000FF91EF91BF91AF919F918F917F916F91FA
:100700005F914F913F912F910F900FBE0F901F90CF
:1007100018951F920F920FB60F9211242F938F935B
:100720009F93EF93FF93E0910502F0910602808181
:10073000E0910B02F0910C0282FD1BC09081809130
:100740000E028F5F8F7320910F02821741F0E091AC
:100750000E02F0E0EB50FE4F958F80930E02FF915A
:10076000EF919F918F912F910F900FBE0F901F903F
:1007700018958081F4CF1F920F920FB60F9211241B
:100780002F933F938F939F93AF93BF9380917C015F
:1007900090917D01A0917E01B0917F0130917B010C
:1007A00023E0230F2D3758F50196A11DB11D20938D
:1007B0007B0180937C0190937D01A0937E01B09397
:1007C0007F018091800190918101A0918201B0917F
:1007D00083010196A11DB11D809380019093810139
:1007E000A0938201B0938301BF91AF919F918F91AC
:1007F0003F912F910F900FBE0F901F90189526E8F4
:10080000230F0296A11DB11DD2CF1F920F920FB6DA
:100810000F9211242F933F934F935F936F937F9386
:100820008F939F93AF93BF93EF93FF938091B90002
:10083000887F803609F44AC0F0F5883209F4A7C0F1
:1008400018F5803109F49BC0B8F4882309F4F9C085
:10085000883009F494C0FF91EF91BF91AF919F91BF
:100860008F917F916F915F914F913F912F910F9059
:100870000FBE0F901F901895883109F488C0803200
:1008800051F78093CE0114C0803409F49DC040F428
:100890008033B9F38833F9F68093CE0185ECB0C08C
:1008A000803509F485C0883509F496C0883499F6F6
:1008B0000E943902D0CF883909F48CC038F58837C6
:1008C00029F050F4883611F0803729F683E08093C0
:1008D000D00110927A0157C0883809F47BC0803962
:1008E00019F0803809F0B7CF80917A01803208F092
:1008F00071C0E0917A0181E08E0F80937A0180913E
:10090000BB00F0E0E65AFE4F80833DC0803B39F0EB
:10091000E0F4803A09F479C0883A09F09CCF84E089
:100920008093D0011092590110925801E0918601F4
:10093000F091870109958091580181110FC081E0E4
:10094000809358011092380109C0803C09F4A6CF69
:10095000883C09F4A3CF883B09F07DCFE091590191
:1009600081E08E0F80935901F0E0E85CFE4F8081BA
:100970008093BB00909159018091580129C08091CA
:10098000AB018093BB0085EC8093BC0064CF909159
:10099000CD018091CC01981758F5E091CD0181E00F
:1009A0008E0F8093CD01F0E0E455FE4F8081E9CFBA
:1009B000E091CD0181E08E0F8093CD018091BB004D
:1009C000F0E0E455FE4F80839091CD018091CC0101
:1009D0009817C8F285E8D8CFE091CD0181E08E0F5D
:1009E0008093CD018091BB00F0E0E455FE4F808301
:1009F0008091CF0181115CCF81E08093AA0184EACC
:100A00008093BC001092D00126CF85EC8093BC006F
:100A10001092D00180917A01803230F4E0917A0115
:100A2000F0E0E65AFE4F108260917A0170E0E091AA
:100A30008401F09185018AE591E0099510927A018F
:100A40000ACF1092CE0134CFE5EFF1E0138212828B
:100A500088EE93E0A0E0B0E084839583A683B7831B
:100A600024E031E03183208325EC30E03587248792
:100A700024EC30E03787268720EC30E0318B208B68
:100A800021EC30E0338B228B22EC30E0358B248B51
:100A900026EC30E0378B268B118E128E138E148E3F
:100AA000E2E9F2E01382128284839583A683B783FE
:100AB00086E191E091838083EEE9F2E083E190E0CA
:100AC00094838383158283E290E0928381830895E7
:100AD000CF93DF93CDB7DEB7A1970FB6F894DEBF03
:100AE0000FBECDBF789484B5826084BD84B581602B
:100AF00084BD85B5826085BD85B5816085BD8091E9
:100B00006E00816080936E00109281008091810060
:100B10008260809381008091810081608093810058
:100B2000809180008160809380008091B10084601A
:100B30008093B1008091B00081608093B00080917B
:100B40007A00846080937A0080917A00826080933A
:100B50007A0080917A00816080937A0080917A0097
:100B6000806880937A001092C100E0910502F091B4
:100B7000060282E08083E0910102F091020210827D
:100B8000E0910302F09104028FEC808310920D0239
:100B9000E0910902F0910A0286E08083E091070269
:100BA000F0910802808180618083E0910702F091DA
:100BB0000802808188608083E0910702F09108023A
:100BC000808180688083E0910702F0910802808133
:100BD0008F7D808310928901109288011092F2011A
:100BE0001092F1011092D00181E08093CF01109218
:100BF000AA0161E082E10E94960161E083E10E9426
:100C000096018091B9008E7F8093B9008091B900E0
:100C10008D7F8093B90088E48093B80085E4809349
:100C2000BC0087E890E0909387018093860188E874
:100C300090E0909385018093840181E00E94F0020E
:100C40008091A302882309F436C080919E0290E02F
:100C5000FC01EC55FF4F249180579F4FFC0184917C
:100C6000882399F090E0880F991FFC01EA57FF4F05
:100C7000A591B491FC01E458FF4F859194918FB7F1
:100C8000F894EC91E22BEC938FBF61E080919E028F
:100C90000E94960120919F023091A0028091A302B0
:100CA000882349F080919E0260E02332310509F0EB
:100CB00061E00E9496016AE070E080E090E00E94AE
:100CC00007028091A1020E94F002DD24D394CC247B
:100CD000CA9485EE982E95EC892E2AE0422E512C4E
:100CE000612C712C30E0A32E30E0B32E8091D00126
:100CF0008111FCCF80919F02D092D001D092CF0180
:100D0000C092CE011092CD01D092CC01D092AB0115
:100D10009091AB01880F892B8093AB018091AA0140
:100D2000813009F076C01092AA018091AB018093C6
:100D3000BB008091BC0083FDF8CF8092BC00809105
:100D4000D0018130E1F38091CD0192E0823010F446
:100D50009091CD01ACEAB1E0EAE8F1E080E08913DE
:100D60005BC0109289018093880182E992E00E9421
:100D70007A02182F00E082E992E00E947A027C0158
:100D800084E291E00E945603E02AF12AB70190E044
:100D900080E00E94B1072AE939E949E95FE30E944E
:100DA00010070E9482079B0150E040E019A27E01DB
:100DB000F1E2EF0EF11CCA01B901A30192010E94F8
:100DC0003F08605DF70162937F0121153105410500
:100DD000510589F7309719F0CF010E9456038EE232
:100DE00091E00E94560385E391E00E9456036AEF6A
:100DF00070E080E090E00E940702A114B10409F4C1
:100E000075CF0E94F300882309F470CF0E94000080
:100E10006DCF9092BC0093CF2D9121938F5F9FCF88
:100E20000E9424070C9405080E94FE0758F00E94B7
:100E3000F70740F029F45F3F29F00C94EE075111B9
:100E40000C9439080C94F4070E94160868F399234F
:100E5000B1F3552391F3951B550BBB27AA276217B6
:100E60007307840738F09F5F5F4F220F331F441FC3
:100E7000AA1FA9F335D00E2E3AF0E0E832D09150F7
:100E80005040E695001CCAF72BD0FE2F29D0660FE4
:100E9000771F881FBB1F261737074807AB07B0E827
:100EA00009F0BB0B802DBF01FF2793585F4F3AF02D
:100EB0009E3F510578F00C94EE070C9439085F3F83
:100EC000E4F3983ED4F3869577956795B795F795B3
:100ED0009F5FC9F7880F911D9695879597F908959B
:100EE000E1E0660F771F881FBB1F62177307840737
:100EF000BA0720F0621B730B840BBA0BEE1F88F746
:100F0000E09508950E941E0888F09F5798F0B92F29
:100F10009927B751B0F0E1F0660F771F881F991F2E
:100F20001AF0BA95C9F714C0B13091F00E94380890
:100F3000B1E008950C943808672F782F8827B85FA0
:100F400039F0B93FCCF3869577956795B395D9F786
:100F50003EF490958095709561957F4F8F4F9F4F90
:100F60000895E89409C097FB3EF49095809570959C
:100F700061957F4F8F4F9F4F9923A9F0F92F96E9E5
:100F8000BB279395F695879577956795B795F1115A
:100F9000F8CFFAF4BB0F11F460FF1BC06F5F7F4FF7
:100FA0008F4F9F4F16C0882311F096E911C0772309
:100FB00021F09EE8872F762F05C0662371F096E812
:100FC000862F70E060E02AF09A95660F771F881FE1
:100FD000DAF7880F9695879597F9089597F99F679F
:100FE00080E870E060E008959FEF80EC08950024B1
:100FF0000A941616170618060906089500240A947E
:1010000012161306140605060895092E0394000C03
:1010100011F4882352F0BB0F40F4BF2B11F460FF92
:1010200004C06F5F7F4F8F4F9F4F089557FD9058BB
:10103000440F551F59F05F3F71F04795880F97FB9C
:10104000991F61F09F3F79F0879508951216130656
:101050001406551FF2CF4695F1DF08C01616170685
:101060001806991FF1CF86957105610508940895BA
:10107000E894BB2766277727CB0197F90895A1E26B
:101080001A2EAA1BBB1BFD010DC0AA1FBB1FEE1F02
:10109000FF1FA217B307E407F50720F0A21BB30B4D
:1010A000E40BF50B661F771F881F991F1A9469F7C9
:1010B00060957095809590959B01AC01BD01CF0125
:1010C0000895EE0FFF1F0590F491E02D0994F89418
:0210D000FFCF50
:1010D2000000000029018900B6007601E700C50082
:1010E200D90000000000C102940253036A028D027B
:1010F2007A026B02204C696768743A202000202033
:081102006C757820000D0A0055
:107E0000112484B714BE81FFF0D085E080938100F7
:107E100082E08093C00088E18093C10086E0809377
:107E2000C20080E18093C4008EE0C9D0259A86E02C
:107E300020E33CEF91E0309385002093840096BBD3
:107E4000B09BFECF1D9AA8958150A9F7CC24DD24C4
:107E500088248394B5E0AB2EA1E19A2EF3E0BF2EE7
:107E6000A2D0813461F49FD0082FAFD0023811F036
:107E7000013811F484E001C083E08DD089C08234E0
:107E800011F484E103C0853419F485E0A6D080C0E4
:107E9000853579F488D0E82EFF2485D0082F10E0AE
:107EA000102F00270E291F29000F111F8ED06801E7
:107EB0006FC0863521F484E090D080E0DECF843638
:107EC00009F040C070D06FD0082F6DD080E0C81688
:107ED00080E7D80618F4F601B7BEE895C0E0D1E017
:107EE00062D089930C17E1F7F0E0CF16F0E7DF06D8
:107EF00018F0F601B7BEE89568D007B600FCFDCFD4
:107F0000A601A0E0B1E02C9130E011968C91119780
:107F100090E0982F8827822B932B1296FA010C0160
:107F200087BEE89511244E5F5F4FF1E0A038BF0790
:107F300051F7F601A7BEE89507B600FCFDCF97BE46
:107F4000E89526C08437B1F42ED02DD0F82E2BD052
:107F50003CD0F601EF2C8F010F5F1F4F84911BD097
:107F6000EA94F801C1F70894C11CD11CFA94CF0C13
:107F7000D11C0EC0853739F428D08EE10CD085E9AC
:107F80000AD08FE07ACF813511F488E018D01DD067
:107F900080E101D065CF982F8091C00085FFFCCF94
:107FA0009093C60008958091C00087FFFCCF809118
:107FB000C00084FD01C0A8958091C6000895E0E648
:107FC000F0E098E1908380830895EDDF803219F02E
:107FD00088E0F5DFFFCF84E1DECF1F93182FE3DFCA
:107FE0001150E9F7F2DF1F91089580E0E8DFEE27F6
:047FF000FF270994CA
:027FFE00040479
:0400000300007E007B
:00000001FF
