:100000000C9462000C948A000C948A000C948A0070
:100010000C948A000C948A000C948A000C94570368
:100020000C948A000C948A000C948A000C948A0028
:100030000C948A000C948A000C948A000C948A0018
:100040000C940D030C948A000C94DB020C94B50202
:100050000C948A000C948A000C948A000C948A00F8
:100060000C948A000C948A000000000023002600F3
:10007000290000000008000201000003040700003E
:1000800000000000000000000000250028002B00F8
:1000900000000000240027002A00040404040404D3
:1000A0000404020202020202030303030303010227
:1000B00004081020408001020408102001020408F6
:1000C0001020170411241FBECFEFD8E0DEBFCDBF34
:1000D00011E0A0E0B1E0E2E4F9E102C005900D9288
:1000E000A034B107D9F722E0A0E4B1E001C01D922D
:1000F000A23CB207E1F710E0C2E6D0E004C02197CD
:10010000FE010E948A0CC136D107C9F70E9449043A
:100110000C949F0C0C940000CF92DF92EF92FF9210
:10012000CF93DF93EC01072E000C880B990B0E94F4
:10013000FA0A6B017C0120E030E040E45FE30E94BA
:10014000AA0B20E030E048E452E40E94500A0E94EA
:10015000C20AC617D707D4F020E030E040EA5FE3D8
:10016000C701B6010E94AA0B20E030E048E452E447
:100170000E94500A20E030E040E85FE30E94DF097F
:100180000E94C20A21E06C177D070CF420E0822F48
:1001900090E0DF91CF91FF90EF90DF90CF900895A6
:1001A0008F929F92AF92BF92CF92DF92EF92FF9287
:1001B0000F931F93CF93DF93FC0120813181E09156
:1001C0005501F091560101E010E02E173F070CF0A9
:1001D00043C0D901AA0FBB1FE0915301F091540114
:1001E000EA0FFB1FA080B180890100951095017076
:1001F000112720FD23C02CE93FEFEA016B017C01B0
:100200004901840E951EB401C5010E948C00892B02
:10021000C1F48C0E9D1EB401C5010E948C00892B77
:1002200049F5BE01680D791DC5010E948C0023E0CF
:1002300030E0892B41F40FEF1FEF0EC024E630E0D1
:10024000DCCF21E030E0F6018081918101968217B8
:1002500093079CF491838083C801DF91CF911F9114
:100260000F91FF90EF90DF90CF90BF90AF909F9055
:100270008F90089522E030E0E6CF11821082F701DE
:10028000808191810196E6CFAF92BF92CF92DF92AB
:10029000EF92FF920F931F93CF93DF936C017B013B
:1002A0008B01040F151FEB015E01AE18BF08C017CC
:1002B000D10759F06991D601ED91FC910190F0813F
:1002C000E02DC6010995892B79F7C501DF91CF9102
:1002D0001F910F91FF90EF90DF90CF90BF90AF9064
:1002E0000895FC01538D448D252F30E0842F90E03C
:1002F000821B930B541710F0CF9608950197089521
:10030000FC01918D828D981761F0A28DAE0FBF2FE9
:10031000B11D5D968C91928D9F5F9F73928F90E03F
:1003200008958FEF9FEF0895FC01918D828D9817AE
:1003300031F0828DE80FF11D858D90E008958FEFEB
:100340009FEF0895FC01918D228D892F90E0805CB4
:100350009F4F821B91098F739927089587E591E03C
:100360000E94A20121E0892B09F420E0822F089548
:1003700080E090E0892B29F00E94AE0181110C945D
:1003800000000895FC01A48DA80FB92FB11DA35A38
:10039000BF4F2C91848D90E001968F739927848FA5
:1003A000A689B7892C93A089B1898C9183708064C8
:1003B0008C93938D848D981306C00288F389E02D69
:1003C00080818F7D80830895EF92FF920F931F931A
:1003D000CF93DF93EC0181E0888F9B8D8C8D9813F8
:1003E0001AC0E889F989808185FF15C09FB7F89404
:1003F000EE89FF896083E889F98980818370806450
:1004000080839FBF81E090E0DF91CF911F910F919A
:10041000FF90EF900895F62E0B8D10E00F5F1F4FA9
:100420000F731127E02E8C8D8E110CC00FB607FCB8
:10043000FACFE889F989808185FFF5CFCE010E9446
:10044000C201F1CFEB8DEC0FFD2FF11DE35AFF4FF1
:10045000F0829FB7F8940B8FEA89FB8980818062D4
:10046000CFCFCF93DF93EC01888D8823B9F0AA8991
:10047000BB89E889F9898C9185FD03C0808186FD5F
:100480000DC00FB607FCF7CF8C9185FFF2CF8081AE
:1004900085FFEDCFCE010E94C201E9CFDF91CF9160
:1004A0000895833081F028F4813099F08230A9F0EA
:1004B00008958730A9F08830C9F08430B1F4809174
:1004C00080008F7D03C0809180008F7780938000B3
:1004D000089584B58F7784BD089584B58F7DFBCF53
:1004E0008091B0008F778093B00008958091B00024
:1004F0008F7DF9CF1F93CF93DF93282F30E0F90141
:10050000EE58FF4F8491F901E255FF4FD491F90164
:10051000E656FF4FC491CC23A9F0162F81110E94FB
:100520005102EC2FF0E0EE0FFF1FEA57FF4FA591AD
:10053000B4918FB7F894EC91111108C0D095DE23D7
:10054000DC938FBFDF91CF911F910895DE2BF8CF01
:10055000FC0101900020E9F73197AF01481B590BCE
:10056000BC0187E591E00C9444011F920F920FB6F5
:100570000F9211242F933F934F935F936F937F9329
:100580008F939F93AF93BF93EF93FF9387E591E092
:100590000E94C201FF91EF91BF91AF919F918F9106
:1005A0007F916F915F914F913F912F910F900FBE6F
:1005B0000F901F9018951F920F920FB60F92112453
:1005C0002F938F939F93EF93FF93E0916701F091A7
:1005D00068018081E0916D01F0916E0182FD1BC088
:1005E0009081809170018F5F8F73209171018217CC
:1005F00041F0E0917001F0E0E95AFE4F958F809351
:100600007001FF91EF919F918F912F910F900FBEED
:100610000F901F9018958081F4CF1F920F920FB604
:100620000F9211242F933F938F939F93AF93BF9378
:100630008091450190914601A0914701B0914801F8
:100640003091440123E0230F2D3758F50196A11D69
:10065000B11D209344018093450190934601A093DE
:100660004701B09348018091400190914101A091D0
:100670004201B09143010196A11DB11D809340013B
:1006800090934101A0934201B0934301BF91AF9178
:100690009F918F913F912F910F900FBE0F901F90C0
:1006A000189526E8230F0296A11DB11DD2CF1F92E7
:1006B0000F920FB60F9211242F933F934F935F9396
:1006C0006F937F938F939F93AF93BF93CF93DF935A
:1006D000EF93FF932091F40130E0F901EE58FF4FC2
:1006E0008491F901E255FF4FD491F901E656FF4F8D
:1006F000C491CC2379F081110E945102EC2FF0E0DB
:10070000EE0FFF1FE859FF4FA591B491EC91ED2337
:1007100081E009F480E02091F7013091F8012F5F2A
:100720003F4F3093F8012093F7019091C102943626
:1007300018F095E09093F5019091F501933009F44C
:100740004CC0E0F4923011F19091F601992319F028
:1007500081116BC02D9AFF91EF91DF91CF91BF91E5
:10076000AF919F918F917F916F915F914F913F9149
:100770002F910F900FBE0F901F901895943009F491
:1007800048C0953009F78111DFCF09C08111DCCF56
:100790002091F7013091F8012436310528F41092A8
:1007A000F8011092F701D0CF1092C102E091C1027E
:1007B00091E09E0F9093C102F0E02091F7013091FB
:1007C000F801EE0FFF1FEC50FE4F36832583109289
:1007D000F8011092F70193E019C0813009F0B4CF0D
:1007E000E091C10291E09E0F9093C102F0E0209150
:1007F000F7013091F801EE0FFF1FEC50FE4F3683EA
:1008000025831092F8011092F70194E09093F5017E
:100810009BCF882359F22091F7013091F8012536BA
:10082000310508F491CF95E0F1CF2D9894CFE7E50D
:10083000F1E01382128288EE93E0A0E0B0E08483BE
:100840009583A683B78384E091E09183808385ECD0
:1008500090E09587848784EC90E09787868780EC8A
:1008600090E0918B808B81EC90E0938B828B82EC7B
:1008700090E0958B848B86EC90E0978B868B118E25
:10088000128E138E148EE4EFF1E08BE080831282DF
:100890000895CF93DF93CDB7DEB7AB970FB6F8943B
:1008A000DEBF0FBECDBF789484B5826084BD84B5B1
:1008B000816084BD85B5826085BD85B5816085BD5B
:1008C00080916E00816080936E0010928100809113
:1008D000810082608093810080918100816080939B
:1008E0008100809180008160809380008091B100C0
:1008F00084608093B1008091B00081608093B000EB
:1009000080917A00846080937A0080917A0082607E
:1009100080937A0080917A00816080937A00809140
:100920007A00806880937A001092C100E09167019C
:10093000F091680182E08083E0916301F0916401AD
:100940001082E0916501F09166019FEC9083109216
:100950006F01E0916B01F0916C0196E09083E09162
:100960006901F0916A01908190619083E091690141
:10097000F0916A01908198609083E0916901F09113
:100980006A01908190689083E0916901F0916A0119
:1009900090819F7D9083F8948093B0008093B10004
:1009A00094E69093B3001092B20080937000789414
:1009B0008093F5011092C1028091F40190E0FC0156
:1009C000E255FF4F249186569F4FFC018491882366
:1009D000C9F090E0880F991FFC01E057FF4F459147
:1009E0005491FC01EA57FF4FA591B4919FB7F89439
:1009F000FA0180812095822380838C91E22FE82365
:100A0000EC939FBFEBEBF0E02491E7EAF0E08491F8
:100A1000882399F090E0880F991FFC01E057FF4F61
:100A2000A591B491FC01EA57FF4F859194918FB73E
:100A3000F894EC91E22BEC938FBF60E08DE00E9484
:100A40007A0222242394312C44244A94542C3201D7
:100A500089EF91E090935401809353018091C102FA
:100A600090E090935601809355018091F501853077
:100A700009F090C08091FB019091FC018858910988
:100A80008D35910508F0BFC08091C102843009F016
:100A90008EC08091FD019091FE018097479708F0EC
:100AA00086C08091FF01909100020997099708F094
:100AB0007EC0109252011092510140924D0150920D
:100AC0004E0160924F017092500130924A01209283
:100AD000490182E191E00E94A80220914D013091EC
:100AE0004E0140914F015091500119A28E010F5DAE
:100AF0001F4FCA01B9012AE030E040E050E00E94F7
:100B0000270C605DF80162938F01211531054105C5
:100B1000510579F7309719F0CF010E94A80289E2B8
:100B200091E00E94A80280914D0190914E01A09108
:100B30004F01B09150018D35924AAF4FB10561F42C
:100B40008CE291E00E94A80289E291E00E94A80252
:100B500061E08DE00E947A0280914D0190914E01FA
:100B6000A0914F01B09150018D399246AF4FB10520
:100B700061F485E391E00E94A80289E291E00E947D
:100B8000A80260E08DE00E947A0282E08093F50185
:100B90001092C10280E090E0892B09F459CF0E94A5
:100BA000AE01882309F454CF0E94000051CF8091F8
:100BB000C102843440F18091FD019091FE01825484
:100BC00091098E9700F590E080E040E050E0BA0196
:100BD000FC01E150FE4F208131812950310929303B
:100BE000310588F4FC01EF5FFD4F208131812651F2
:100BF00031092131310510F120813181265031092F
:100C00002730310598F18091C1028A3108F463C020
:100C10008091F9019091FA01843F914060F5109222
:100C200052011092510140924D0150924E0160923A
:100C30004F017092500189E090E03FC1440F551F71
:100C4000661F771F416004968038910509F6E0E23F
:100C5000F0E0F0935201E093510140934D01509325
:100C60004E0160934F01709350012FCF440F551FD9
:100C7000661F771FE8CF8091FB019091FC0185975B
:100C80004B9748F5E4EFF1E082E090E040E050E07F
:100C9000BA01A091C1029C012F5F3F4FA21713061A
:100CA00009F00CF4F2C02185328527503109273034
:100CB000310508F0EAC023853485235131092F30EE
:100CC000310508F4D5C0238534852A5031092930EF
:100CD000310508F4D5C08091C1028A3108F43FC0C3
:100CE0008091F9019091FA018032934008F497CFF6
:100CF0008091FB019091FC01C697869780F58091C9
:100D0000FD019091FE01C697869748F5E4EFF1E06A
:100D100083E090E040E050E0BA01A091C1029C0164
:100D20002F5F3F4FA217130609F00CF4D8C023859C
:100D300034852C5031092B30310508F0D0C0258581
:100D40003685255231092B31310508F4BBC0258584
:100D500036852C5031092A30310508F4BBC080910A
:100D6000C102823238F18091FB019091FC0106971B
:100D7000079700F5E4EFF1E082E090E040E050E01A
:100D8000BA01DC0111962091C1022A171B0609F055
:100D90000CF4D1C0218532852E513109273131051E
:100DA00008F4B4C0218532852C5031092B3031052F
:100DB00008F4BBC08091C1028D3008F4EDC03BA2A5
:100DC0002AA21A82198249E753E0BE016F5F7F4F62
:100DD000CE0182960E94D000892B09F0DDC049E740
:100DE00053E0BE016F5F7F4FCE0182960E94D0001C
:100DF000019709F0D1C049E753E0BE016F5F7F4F13
:100E0000CE0182960E94D0008C01892B09F0C4C0CB
:100E1000812C912C54012091C1028AA19BA12817F9
:100E2000190609F00CF4A9C049E753E0BE016F5F51
:100E30007F4FCE0182960E94D0007C0149E753E0AB
:100E4000BE016F5F7F4FCE0182960E94D000F1E01D
:100E5000EF16F10409F088C0892B09F09DC0880CB9
:100E6000991CAA1CBB1C689480F80F5F1F4FD3CF3E
:100E7000440F551F661F771F41600296349609CFB5
:100E8000440F551F661F771FF8CF019795958795DB
:100E900090935201809351010C972CF410925201BF
:100EA0001092510118CF40934D0150934E01609321
:100EB0004F017093500182E090E090934A0180933B
:100EC000490107CE440F551F661F771F41600296E8
:100ED000349623CF440F551F661F771FF8CF019715
:100EE0009595879590935201809351010C972CF41E
:100EF000109252011092510132CF40934D01509304
:100F00004E0160934F017093500195CE440F551FD1
:100F1000661F771F4160238534853496235031093D
:100F20002530310538F402962CCF440F551F661F2B
:100F3000771FF1CFCD010197959587959093520139
:100F40008093510140972CF410925201109251015C
:100F500031CF40934D0150934E0160934F017093F8
:100F600050018AE090E0A9CFEF28B1F40197A1F4F5
:100F7000880C991CAA1CBB1C78CF109352010093BB
:100F8000510180924D0190924E01A0924F01B0927A
:100F9000500183E090E091CF8091550190915601EE
:100FA000181619060CF082C0E0915301F09154011B
:100FB0003BA22AA28281938189974E9708F076C03E
:100FC00082E090E09BA38AA3848195810B970A9786
:100FD00008F06CC083E090E09BA38AA31A82198278
:100FE0004CEB51E0BE016F5F7F4FCE0182960E94B5
:100FF000D0008C01892B09F059C04CEB51E0BE01A7
:101000006F5F7F4FCE0182960E94D000019709F05A
:101010004DC0812C912C54012091550130915601E5
:101020008AA19BA1821793070CF0B0C04CEB51E052
:10103000BE016F5F7F4FCE0182960E94D0007C017F
:101040000330110539F14CEB51E0BE016F5F7F4F6A
:10105000CE0182960E94D0006C010330110561F42C
:101060004CEB51E0BE016F5F7F4FCE0182960E9434
:10107000D000C816D906D1F4E114F10409F479C0FE
:10108000EA94EF2899F4CD2889F4880C991CAA1CBD
:10109000BB1C79C04CEB51E0BE016F5F7F4FCE01AE
:1010A00082960E94D000E816F90669F2C0905301BA
:1010B000D0905401F60182819381C697869778F586
:1010C000848195814B97459750F5D6011696760108
:1010D000F6ECEF0EF11C20E030E040E050E060E084
:1010E00070E080E090E00D911C911197095011097A
:1010F00008301105A0F412960D911C91139701511F
:1011000011090D30110508F450C012960D911C9173
:101110001397045011090530110508F46BC0809134
:10112000C102823209F06AC0F601828193810A9776
:10113000099708F063C0A091C102B0E0A150B04887
:10114000AA0FBB1FAC0DBD1D8D919C910A970997ED
:1011500008F054C0109252011092510140924D017A
:1011600050924E0160924F017092500188E090E0E1
:10117000A4CECA94CD2809F099CF880C991CAA1C3A
:10118000BB1C689480F80F5F1F4F46CF109352012D
:101190000093510180924D0190924E01A0924F0117
:1011A000B092500184E090E088CE01E00E94540C9F
:1011B00021601496EA16FB0609F095CF20934D01A5
:1011C00030934E0140934F015093500100E20E9432
:1011D0006F0C20934B0130934C0187E090E090938B
:1011E0004A018093490180E390E0909352018093FB
:1011F00051016FCC01E00E94540CDBCFF6018281DB
:101200009381895791098335910548F58091C102F1
:10121000813228F184819581CA97899700F59601DA
:101220002A5F3F4F80E090E0DC0143E050E0F901AD
:10123000608171816A5071096930710580F4628141
:101240007381665171096131710508F48AC0628148
:101250007381665071096730710508F4AAC08091E6
:101260005501909156019FA38EA306970CF48DCC47
:10127000F6013296FDA3ECA303E010E085ECC82E46
:101280008DE9D82E8CE1E82E81E8F82EECA1FDA1A5
:1012900064817581A080B18090E080E00E94F80AAE
:1012A00068A779A78AA79BA7B50190E080E00E9474
:1012B000F80A4B015C012DEC3CEC4CE45FE30E942E
:1012C000AA0B9B01AC0168A579A58AA59BA50E94E4
:1012D0004B0AF0E0E0E087FD16C02DEC3CEC4CE45E
:1012E0005FE368A579A58AA59BA50E94AA0B9B012F
:1012F000AC01C501B4010E944B0AE2E0F0E087FDB9
:1013000002C0E1E0F0E0A701960163E971E080E04E
:1013100091E00E94170C6F01FF0FEE08FF08C62630
:10132000D726E826F9260F5F1F4F8CA19DA10296B4
:101330009DA38CA3EEA1FFA1E017F10709F0A6CFB2
:10134000C0924D01D0924E01E0924F01F0925001B7
:1013500080E290E090935201809351018FEF9FEFD4
:10136000ACCD880F991FAA1FBB1F81604E5F5F4FD6
:101370002C5F3F4F4332510509F059CF96012A5B4C
:101380003F4FF901208131812A503109293031053F
:1013900008F065CF20E130E03093520120935101F5
:1013A00080934D0190934E01A0934F01B093500153
:1013B000DDCE880F991FAA1FBB1FD8CF5058BB275F
:1013C000AA270E94F6090C94700B0E94620B38F059
:1013D0000E94690B20F039F49F3F19F426F40C9415
:1013E0005F0B0EF4E095E7FB0C94590BE92F0E947C
:1013F000810B58F3BA17620773078407950720F02B
:1014000079F4A6F50C94A30B0EF4E0950B2EBA2FED
:10141000A02D0B01B90190010C01CA01A0011124FA
:10142000FF27591B99F0593F50F4503E68F11A16A6
:10143000F040A22F232F342F4427585FF3CF469537
:1014400037952795A795F0405395C9F77EF41F1659
:10145000BA0B620B730B840BBAF09150A1F0FF0F23
:10146000BB1F661F771F881FC2F70EC0BA0F621F0F
:10147000731F841F48F4879577956795B795F795FF
:101480009E3F08F0B0CF9395880F08F09927EE0F94
:101490009795879508950E94350B08F481E008958B
:1014A0000E94640A0C94700B0E94690B58F00E9411
:1014B000620B40F029F45F3F29F00C94590B511155
:1014C0000C94A40B0C945F0B0E94810B68F399237E
:1014D000B1F3552391F3951B550BBB27AA27621730
:1014E0007307840738F09F5F5F4F220F331F441F3D
:1014F000AA1FA9F335D00E2E3AF0E0E832D0915071
:101500005040E695001CCAF72BD0FE2F29D0660F5D
:10151000771F881FBB1F261737074807AB07B0E8A0
:1015200009F0BB0B802DBF01FF2793585F4F3AF0A6
:101530009E3F510578F00C94590B0C94A40B5F3F1F
:10154000E4F3983ED4F3869577956795B795F7952C
:101550009F5FC9F7880F911D9695879597F9089514
:10156000E1E0660F771F881FBB1F621773078407B0
:10157000BA0720F0621B730B840BBA0BEE1F88F7BF
:10158000E09508950E94C90A6894B1110C94A40BC7
:1015900008950E94890B88F09F5798F0B92F9927DA
:1015A000B751B0F0E1F0660F771F881F991F1AF04E
:1015B000BA95C9F714C0B13091F00E94A30BB1E005
:1015C00008950C94A30B672F782F8827B85F39F004
:1015D000B93FCCF3869577956795B395D9F73EF4E7
:1015E00090958095709561957F4F8F4F9F4F08958F
:1015F000E89409C097FB3EF49095809570956195AD
:101600007F4F8F4F9F4F9923A9F0F92F96E9BB2762
:101610009395F695879577956795B795F111F8CFDE
:10162000FAF4BB0F11F460FF1BC06F5F7F4F8F4F49
:101630009F4F16C0882311F096E911C0772321F03F
:101640009EE8872F762F05C0662371F096E8862FD7
:1016500070E060E02AF09A95660F771F881FDAF72E
:10166000880F9695879597F90895990F0008550F5B
:10167000AA0BE0E8FEEF16161706E807F907C0F018
:1016800012161306E407F50798F0621B730B840B20
:10169000950B39F40A2661F0232B242B252B21F4FA
:1016A00008950A2609F4A140A6958FEF811D811D9A
:1016B000089597F99F6780E870E060E008959FEFD4
:1016C00080EC089500240A941616170618060906D9
:1016D000089500240A9412161306140605060895A8
:1016E000092E0394000C11F4882352F0BB0F40F430
:1016F000BF2B11F460FF04C06F5F7F4F8F4F9F4F70
:10170000089557FD9058440F551F59F05F3F71F0F1
:101710004795880F97FB991F61F09F3F79F0879558
:101720000895121613061406551FF2CF4695F1DFE1
:1017300008C0161617061806991FF1CF8695710571
:10174000610508940895E894BB2766277727CB01A5
:1017500097F908950E94BD0B0C94700B0E94620BC8
:1017600038F00E94690B20F0952311F00C94590B6E
:101770000C945F0B11240C94A40B0E94810B70F34A
:10178000959FC1F3950F50E0551F629FF001729F26
:10179000BB27F00DB11D639FAA27F00DB11DAA1F35
:1017A000649F6627B00DA11D661F829F2227B00D82
:1017B000A11D621F739FB00DA11D621F839FA00D0D
:1017C000611D221F749F3327A00D611D231F849F5D
:1017D000600D211D822F762F6A2F11249F575040B4
:1017E0009AF0F1F088234AF0EE0FFF1FBB1F661F2F
:1017F000771F881F91505040A9F79E3F510580F0F8
:101800000C94590B0C94A40B5F3FE4F3983ED4F373
:10181000869577956795B795F795E7959F5FC1F79B
:10182000FE2B880F911D9695879597F90895DB01FA
:101830008F939F930E94490CBF91AF91A29F800DFF
:10184000911DA39F900DB29F900D11240895A1E2C8
:101850001A2EAA1BBB1BFD010DC0AA1FBB1FEE1F2A
:10186000FF1FA217B307E407F50720F0A21BB30B75
:10187000E40BF50B661F771F881F991F1A9469F7F1
:1018800060957095809590959B01AC01BD01CF014D
:1018900008950E94900CA59F900DB49F900DA49F59
:1018A000800D911D11240895002E083090F0982F7E
:1018B000872F762F652F542F432F322F2227085042
:1018C000F4CF220F331F441F551F661F771F881F39
:1018D000991F0A95B2F7002D089597FD1094002ED8
:1018E000083098F00850232F342F452F562F672F9C
:1018F000782F892F912DF4CF15949795879577950B
:10190000679557954795379527950A95AAF7112416
:10191000002D0895EE0FFF1F0590F491E02D09941E
:10192000A29FB001B39FC001A39F700D811D112420
:10193000911DB29F700D811D1124911D0895F89481
:02194000FFCFD7
:1019420000000000E401440171013102A2018001A2
:10195200940120E0B89BE0B8B8E0B988E0B8A1E013
:10196200B881E0B8943A2020000D0A00204C45448A
:10197200204F4E2000204C4544204F464620000078
:00000001FF
