:100000000C9458000C9480000C9480000C94800098
:100010000C9480000C9480000C9480000C94800060
:100020000C9480000C9480000C9480000C94800050
:100030000C9480000C9480000C9480000C94800040
:100040000C9466040C9480000C9480000C94800046
:100050000C9480000C9480000C9480000C94800020
:100060000C94B0040C9480000000000025002800CF
:100070002B00040404040404040402020202020229
:10008000030303030303010204081020408001025C
:1000900004081020010204081020000000080002DB
:1000A0000100000304070000000000000000CF056D
:1000B00011241FBECFEFD8E0DEBFCDBF11E0A0E01E
:1000C000B1E0E8E1FDE002C005900D92AC34B1076B
:1000D000D9F722E0ACE4B1E001C01D92AE32B20724
:1000E000E1F710E0C8E5D0E004C02197FE010E94CE
:1000F0007F06C735D107C9F70E9401060C948A060E
:100100000C9400002091080281E0213208F044C0E4
:100110008091E4018111FCCF8091070292E09093DD
:10012000E40191E09093E3019FEF9093E20110923C
:10013000E1012093E001A7EEB1E0E0ECF1E090E016
:10014000291331C01092BF019091BF01880F892BF4
:100150008093BF018091BE01813049F51092BE01AC
:100160008091BF018093BB008091BC0083FDF8CFDC
:1001700085EC8093BC008091E4018230E1F38091B2
:10018000E2018F3FB1F08091E2018032A1F08091D5
:10019000E201803391F084E01092E60110920802AF
:1001A0001092E50108953D9131939F5FC9CF85EE8F
:1001B000E0CF80E0F1CF82E0EFCF83E0EDCFAF92F0
:1001C000BF92CF92DF92EF92FF920F931F93CF9344
:1001D000DF936C017B018B01040F151FEB015E01A6
:1001E000AE18BF08C017D10759F06991D601ED913B
:1001F000FC910190F081E02DC6010995892B79F7DA
:10020000C501DF91CF911F910F91FF90EF90DF908B
:10021000CF90BF90AF90089590E0FC01E656FF4F5D
:100220002491FC01EA57FF4F3491FC01EE58FF4F37
:10023000E491EE23C9F0222339F0233001F1A8F430
:10024000213019F1223029F1F0E0EE0FFF1FE859BB
:10025000FF4FA591B4918FB7F894EC91611126C02E
:1002600030953E233C938FBF08952730A9F0283066
:10027000C9F0243049F7809180008F7D03C08091C0
:1002800080008F7780938000DFCF84B58F7784BD27
:10029000DBCF84B58F7DFBCF8091B0008F778093CB
:1002A000B000D2CF8091B0008F7DF9CF3E2BDACF56
:1002B0003FB7F8948091BA019091BB01A091BC0125
:1002C000B091BD0126B5A89B05C02F3F19F001963E
:1002D000A11DB11D3FBFBA2FA92F982F8827BC01A0
:1002E000CD01620F711D811D911D42E0660F771FC8
:1002F000881F991F4A95D1F7089521E001C0220F68
:100300006A95EAF7DC011C962C931C971A965C936D
:100310004E931997ED91FC910484F585E02D60E0F2
:10032000099408950895DC01ED91FC910684F78508
:10033000E02D41E0099581E090E00895DC01ED9128
:10034000FC910684F785E02D40E009940F931F93FC
:10035000CF93DF93CDB7DEB728970FB6F894DEBF03
:100360000FBECDBF0091000110910101209102014B
:10037000309103010D831E832F8338870091040180
:1003800010910501209106013091070109831A831C
:100390002B833C8390911C02691710F06FEF690F5B
:1003A000262F30E040911D022C0F3D1FF9014031F6
:1003B00099F4943089F46181680F606885E192E076
:1003C00028960FB6F894DEBF0FBECDBFDF91CF9158
:1003D0001F910F910C949E016581EECF8F929F9299
:1003E000AF92BF92CF92DF92EF92FF920F931F9343
:1003F000CF93DF93EC01423018F08C8188608C83BE
:100400004F836887222329F0413019F48C8184605E
:100410008C830E9458014B015C0184E6C82ED12CCC
:10042000E12CF12C0E945801681979098A099B096D
:10043000683E734081059105A8F321E0C21AD108F6
:10044000E108F10888EE880E83E0981EA11CB11C1B
:10045000C114D104E104F10429F76C8164FD64C086
:10046000E881F9810684F785E02D42E063E0CE0162
:1004700009958BE496E40197F1F7E881F981068408
:10048000F785E02D42E063E0CE01099503E512E037
:10049000C8010197F1F7E881F9810684F785E02D1D
:1004A00042E063E0CE010995C8010197F1F7E881C8
:1004B000F9810684F785E02D42E062E0CE010995DE
:1004C000C8010197F1F76C816062CE010E949E0124
:1004D0008BEE90E00197F1F784E08D836CE0CE0124
:1004E0000E949E0161E0CE010E949E018BE39FE18C
:1004F0000197F1F782E08E8366E0CE010E949E01B3
:10050000E881F9810484F585E02D6FEFCE01DF915C
:10051000CF911F910F91FF90EF90DF90CF90BF9000
:10052000AF909F908F9009946062CE010E949E01CF
:100530008BE496E40197F1F76C816062CE010E9432
:100540009E0103E512E0C8010197F1F76C8160623A
:10055000CE010E949E01B4CF08950895089585EDBF
:100560008093BC008091BC0084FDFCCF1092E4011C
:10057000089520918C01260F3327331F2132310536
:10058000ECF42091E401FC0190E080E0243069F07B
:1005900082E00895A0918C012191AC0144595E4FF5
:1005A000A40FB52FB11D2C930196861798F3809157
:1005B0008C01680F60938C0180E0089581E00895BC
:1005C0000895E091B4018091B301E81730F4F0E0B0
:1005D000E45BFE4F808190E008958FEF9FEF0895D8
:1005E0009091B4018091B3012FEF3FEF981748F439
:1005F000E92FF0E0E45BFE4F208130E09F5F9093B5
:10060000B401C90108958091B3019091B401891B8F
:10061000990B0895CF92DF92EF92FF920F931F9361
:10062000CF93DF937C01CB018A012091E501222346
:1006300089F0EB016B01C40ED51ECC15DD0569F008
:100640006991D701ED91FC910190F081E02DC701F6
:100650000995F3CF642F0E94B902C801DF91CF91B1
:100660001F910F91FF90EF90DF90CF900895CF935F
:10067000DF931F92CDB7DEB769832091E501222376
:10068000F9F020910802203258F021E030E0FC011E
:100690003383228390E080E00F90DF91CF91089523
:1006A0008091E601E82FF0E0E951FE4F99819083B7
:1006B0008F5F8093E6018093080281E090E0ECCFA9
:1006C00061E0CE0101960E94B902F7CFFC012381BF
:1006D0002223F1F0262F618160956223608382815D
:1006E00091E09093E501809307021092E601109249
:1006F000080289E092E00E9437030E948200282FBE
:1007000030E081E090E0232B11F090E080E008954C
:1007100030E020E0F6CFEF92FF920F931F93CF933C
:100720008C01FC0184E0C0E0262F30E060FF02C0B5
:100730009589C92BB90175956795815031968111BD
:10074000F3CF413011F4F8014489F8016585C62BD7
:10075000C42B7801FEE0EF0EF11CF80162896C2BCE
:10076000C7010E946603F801628960956C23C70186
:10077000CF911F910F91FF90EF900C9466030F9310
:100780001F93CF93DF93062F0F70423041F440E068
:10079000602FDF91CF911F910F910C948B03142F39
:1007A000EC0170E084E0759567958A95E1F7CE01DC
:1007B0000E948B03412F602FCE01EBCFFC0184857B
:1007C0008823A1F0218532852115310521F461119D
:1007D00007C0158606C021303105D9F76111F9CF60
:1007E00085876585CF010E960C9466030895EF9278
:1007F000FF920F931F93CF93DF93EC01062FF42EFC
:10080000E22E8B85888B1092B4011092B301109266
:10081000E601109208021092E40111E01093E30146
:100820001092BE0161E082E10E940C0161E083E16F
:100830000E940C018091B9008E7F8093B900809155
:10084000B9008D7F8093B90088E48093B80085E477
:100850008093BC0081E991E09093B2018093B10153
:1008600082E991E09093B0018093AF018889109361
:10087000E501809307021092E601109208020E949F
:10088000820081111CC0198B89E092E00E94F00265
:100890008E878989882339F01F861C8260E0CE010B
:1008A0000E960E9466032E2D4F2D602FCE01DF91F4
:1008B000CF911F910F91FF90EF900C94EE01198A48
:1008C000E8CF90E080E008950E9485061F920F9285
:1008D0000FB60F9211242F933F938F939F93AF9353
:1008E000BF938091B6019091B701A091B801B091EA
:1008F000B9013091B50123E0230F2D3758F501964A
:10090000A11DB11D2093B5018093B6019093B7014D
:10091000A093B801B093B9018091BA019091BB0145
:10092000A091BC01B091BD010196A11DB11D8093A4
:10093000BA019093BB01A093BC01B093BD01BF91DC
:10094000AF919F918F913F912F910F900FBE0F907C
:100950001F90189526E8230F0296A11DB11DD2CF36
:100960001F920F920FB60F9211242F933F934F9324
:100970005F936F937F938F939F93AF93BF93EF9307
:10098000FF938091B900887F803609F44AC0F0F562
:10099000883209F4A7C018F5803109F49BC0B8F477
:1009A000882309F4F9C0883009F494C0FF91EF91CD
:1009B000BF91AF919F918F917F916F915F914F9177
:1009C0003F912F910F900FBE0F901F901895883177
:1009D00009F488C0803251F78093E20114C080345A
:1009E00009F49DC040F48033B9F38833F9F680935D
:1009F000E20185ECB0C0803509F485C0883509F482
:100A000096C0883499F60E94AF02D0CF883909F495
:100A10008CC038F5883729F050F4883611F08037CB
:100A200029F683E08093E4011092AE0157C0883824
:100A300009F47BC0803919F0803809F0B7CF809174
:100A4000AE01803208F071C0E091AE0181E08E0FFE
:100A50008093AE018091BB00F0E0E257FE4F8083AF
:100A60003DC0803B39F0E0F4803A09F479C0883A1F
:100A700009F09CCF84E08093E40110928D011092E4
:100A80008C01E091B101F091B201099580918C0146
:100A900081110FC081E080938C0110926C0109C01C
:100AA000803C09F4A6CF883C09F4A3CF883B09F029
:100AB0007DCFE0918D0181E08E0F80938D01F0E07C
:100AC000E459FE4F80818093BB0090918D0180910D
:100AD0008C0129C08091BF018093BB0085EC80937D
:100AE000BC0064CF9091E1018091E001981758F526
:100AF000E091E10181E08E0F8093E101F0E0E054AC
:100B0000FE4F8081E9CFE091E10181E08E0F80937B
:100B1000E1018091BB00F0E0E054FE4F80839091B2
:100B2000E1018091E0019817C8F285E8D8CFE09103
:100B3000E10181E08E0F8093E1018091BB00F0E044
:100B4000E054FE4F80838091E30181115CCF81E00E
:100B50008093BE0184EA8093BC001092E40126CF0A
:100B600085EC8093BC001092E4018091AE0180324C
:100B700030F4E091AE01F0E0E257FE4F1082609158
:100B8000AE0170E0E091AF01F091B0018EE891E02C
:100B900009951092AE010ACF1092E20134CFE9E03C
:100BA000F2E01382128288EE93E0A0E0B0E084834A
:100BB0009583A683B7838CE091E091838083E5E100
:100BC000F2E0138212828EE191E091838083108A99
:100BD0008FEF87871686118A87E2838714861586AA
:100BE0001286118684E0828B82E0838B81E0848B85
:100BF00080E1858B80E2868B80E4878B80E8808F24
:100C00000895789484B5826084BD84B5816084BD84
:100C100085B5826085BD85B5816085BD80916E009A
:100C2000816080936E0010928100809181008260CB
:100C30008093810080918100816080938100809108
:100C400080008160809380008091B10084608093F7
:100C5000B1008091B00081608093B00080917A00F3
:100C6000846080937A0080917A00826080937A0019
:100C700080917A00816080937A0080917A00806808
:100C800080937A001092C10020E042E060E185E1AB
:100C900092E00E94F70350E040E063E085E192E0DB
:100CA0000E947D0161E085E192E00E94DE0362E046
:100CB00085E192E00E949E018BE39FE10197F1F7AD
:100CC00060E081E00E94A6014FE050E06EE271E03A
:100CD00085E192E00E94DF0061E083E00E94A601CE
:100CE0004CE050E06EE371E085E192E00E94DF00AD
:100CF000C0E0D0E02097F1F30E940000FBCFEE0FA0
:100D0000FF1F0590F491E02D099481E090E0F894A4
:080D10000C948A06F894FFCF51
:100D180000401454004010500000000037030A033C
:100D28006104E0020303F002E10200000000930105
:100D3800DF006104AE02F7037D01DE03BF034C69E7
:100D480067687420496E74656E73697479003F3FF3
:0C0D58003F3F3F2E3F3F204C555800000D
:107E0000112484B714BE81FFF0D085E080938100F7
:107E100082E08093C00088E18093C10086E0809377
:107E2000C20080E18093C4008EE0C9D0259A86E02C
:107E300020E33CEF91E0309385002093840096BBD3
:107E4000B09BFECF1D9AA8958150A9F7CC24DD24C4
:107E500088248394B5E0AB2EA1E19A2EF3E0BF2EE7
:107E6000A2D0813461F49FD0082FAFD0023811F036
:107E7000013811F484E001C083E08DD089C08234E0
:107E800011F484E103C0853419F485E0A6D080C0E4
:107E9000853579F488D0E82EFF2485D0082F10E0AE
:107EA000102F00270E291F29000F111F8ED06801E7
:107EB0006FC0863521F484E090D080E0DECF843638
:107EC00009F040C070D06FD0082F6DD080E0C81688
:107ED00080E7D80618F4F601B7BEE895C0E0D1E017
:107EE00062D089930C17E1F7F0E0CF16F0E7DF06D8
:107EF00018F0F601B7BEE89568D007B600FCFDCFD4
:107F0000A601A0E0B1E02C9130E011968C91119780
:107F100090E0982F8827822B932B1296FA010C0160
:107F200087BEE89511244E5F5F4FF1E0A038BF0790
:107F300051F7F601A7BEE89507B600FCFDCF97BE46
:107F4000E89526C08437B1F42ED02DD0F82E2BD052
:107F50003CD0F601EF2C8F010F5F1F4F84911BD097
:107F6000EA94F801C1F70894C11CD11CFA94CF0C13
:107F7000D11C0EC0853739F428D08EE10CD085E9AC
:107F80000AD08FE07ACF813511F488E018D01DD067
:107F900080E101D065CF982F8091C00085FFFCCF94
:107FA0009093C60008958091C00087FFFCCF809118
:107FB000C00084FD01C0A8958091C6000895E0E648
:107FC000F0E098E1908380830895EDDF803219F02E
:107FD00088E0F5DFFFCF84E1DECF1F93182FE3DFCA
:107FE0001150E9F7F2DF1F91089580E0E8DFEE27F6
:047FF000FF270994CA
:027FFE00040479
:0400000300007E007B
:00000001FF
